:020000040800F2
:1000000000500020B5060008670600086D060008CD
:1000100073060008790600087F060008000000004B
:10002000000000000000000000000000850600083D
:1000300091060008000000009D0600081106000857
:10004000FD060008FD060008FD060008FD06000884
:10005000FD060008FD060008FD060008FD06000874
:10006000FD060008FD060008FD060008FD06000864
:10007000FD060008FD060008FD060008FD06000854
:10008000FD060008FD060008FD060008FD06000844
:10009000FD060008FD060008FD060008FD06000834
:1000A000FD060008FD060008FD060008FD06000824
:1000B000FD060008FD060008FD060008FD06000814
:1000C000FD060008FD060008FD060008FD06000804
:1000D000FD060008FD060008FD060008FD060008F4
:1000E000FD060008FD060008FD06000800000000EF
:1000F0000000000000000000000000000000000000
:0C01000000000000000000005FF808F1A3
:10010C0010B5054C237833B9044B13B10448AFF345
:10011C0000800123237010BD0400002000000000AB
:10012C00F009000808B5034B1BB103490348AFF3B2
:10013C00008008BD0000000008000020F009000845
:10014C0080B485B000AF78607B6803F00703FB6078
:10015C000C4BDB68BB60BA684FF6FF031340BB6007
:10016C00FB681A02BB68134343F0BF6343F40033CC
:10017C00BB60044ABB68D36000BF1437BD4680BC6B
:10018C00704700BF00ED00E080B400AF044BDB68AB
:10019C001B0A03F007031846BD4680BC704700BF1E
:1001AC0000ED00E080B483B000AF03463960FB7112
:1001BC0097F90730002B0ADB3B68DAB20C4997F948
:1001CC0007301201D2B20B4483F800230AE03B68DB
:1001DC00DAB20849FB7903F00F03043B1201D2B2E7
:1001EC000B441A7600BF0C37BD4680BC704700BF6D
:1001FC0000E100E000ED00E080B489B000AFF860F1
:10020C00B9607A60FB6803F00703FB61FB69C3F11B
:10021C000703042B28BF0423BB61FB690433062BA3
:10022C0002D9FB69033B00E000237B614FF0FF32F6
:10023C00BB6902FA03F3DA43BB681A407B699A4044
:10024C004FF0FF317B6901FA03F3D9437B680B4014
:10025C00134318462437BD4680BC704780B582B026
:10026C0000AF78607B68013BB3F1807F01D3012341
:10027C000FE00A4A7B68013B53600F214FF0FF30BF
:10028C00FFF790FF054B00229A60044B07221A607F
:10029C00002318460837BD4680BD00BF10E000E0C3
:1002AC0080B400AF044B1B68034A43F00103136096
:1002BC0000BFBD4680BC70470010024080B400AF48
:1002CC00064B1B6803F00203022B0CBF0123002317
:1002DC00DBB21846BD4680BC704700BF0010024020
:1002EC0080B483B000AF7860064B1B6823F0F80233
:1002FC007B68DB00034913430B6000BF0C37BD4622
:10030C0080BC70470010024080B483B000AF7860AE
:10031C00064B5B6823F0030204497B6813434B6074
:10032C0000BF0C37BD4680BC704700BF00100240B8
:10033C0080B400AF034B5B6803F00C031846BD465A
:10034C0080BC70470010024080B483B000AF78606E
:10035C00064B5B6823F0F00204497B6813434B6047
:10036C0000BF0C37BD4680BC704700BF0010024078
:10037C0080B483B000AF7860064B5B6823F4E06216
:10038C0004497B6813434B6000BF0C37BD4680BCEF
:10039C00704700BF0010024080B483B000AF78609B
:1003AC00064B5B6823F4605204497B6813434B6033
:1003BC0000BF0C37BD4680BC704700BF0010024028
:1003CC0080B485B000AF7860084BDA6907497B6868
:1003DC001343CB61054BDA697B681340FB60FB6808
:1003EC0000BF1437BD4680BC704700BF00100240F0
:1003FC0080B485B000AF7860084B9A6907497B6878
:10040C0013438B61054B9A697B681340FB60FB6857
:10041C0000BF1437BD4680BC704700BF00100240BF
:10042C0080B483B000AF7860064B1B6823F00702E2
:10043C0004497B6813430B6000BF0C37BD4680BC7E
:10044C00704700BF0020024080B400AF034B1B6814
:10045C0003F007031846BD4680BC704700200240DD
:10046C0080B483B000AF786039603B681B0A9AB2E5
:10047C007B685A6100BF0C37BD4680BC704780B4A6
:10048C0085B000AF786039607B68DB68FB603B68E7
:10049C001B0A9BB2BB60FA68BB6813401A04FB686A
:1004AC00D943BB680B401A437B681A6100BF1437F1
:1004BC00BD4680BC7047000080B400AF054B5B6844
:1004CC0023F0E063034A43F00073536000BFBD4662
:1004DC0080BC70470000014080B500AF0120FFF7E1
:1004EC0087FF4FF08050FFF76BFF0320FFF728FECC
:1004FC00FFF74AFE034600220F211846FFF77CFE49
:10050C00034619464FF0FF30FFF74CFEFFF7D4FFC0
:10051C0000F020F800F050F80B4B1B680B4AA2FBC4
:10052C0003239B091846FFF799FE0346002B01D0C5
:10053C0000F08EF840F201110548FFF7A0FF4FF4D0
:10054C007A7000F071F8F5E700000020D34D6210CE
:10055C000008014080B500AF0020FFF761FF00BF2D
:10056C00FFF772FF0346002BFAD11020FFF7B8FEFD
:10057C00FFF796FE00BFFFF7A1FE0346012BFAD151
:10058C000020FFF7E1FE0020FFF7F2FE0020FFF74E
:10059C0003FF0020FFF7B8FE00BFFFF7C9FE0346BC
:1005AC00002BFAD1034800F0DDF9024800F0E8F91D
:1005BC0000BF80BD00127A0080B586B000AF3B1D35
:1005CC0000221A605A609A60DA601A610420FFF700
:1005DC000FFF40F201110A48FFF742FF40F20113EE
:1005EC007B600123BB600223FB6000233B613B1D4E
:1005FC001946034800F035F900BF1837BD4680BDD9
:10060C000008014080B400AF064B1B68002B04D0DF
:10061C00044B1B68013B034A136000BFBD4680BC02
:10062C00704700BF2000002080B483B000AF78601A
:10063C00064A7B68136000BF044B1B68002BFBD180
:10064C0000BF00BF0C37BD4680BC704720000020A7
:10065C0080B400AF72B600BFFEE780B400AFFEE717
:10066C0080B400AFFEE780B400AFFEE780B400AF0B
:10067C00FEE780B400AFFEE780B400AF00BFBD461C
:10068C0080BC704780B400AF00BFBD4680BC7047D3
:10069C0080B400AF00BFBD4680BC704780B400AFD3
:1006AC0000BFBD4680BC7047FFF7F8FF0B480C49F4
:1006BC000C4A002302E0D458C4500433C4188C42B2
:1006CC00F9D3094A094C002301E013600432A24219
:1006DC00FBD300F063F9FFF7FFFE7047000000202A
:1006EC0004000020100A0008040000202400002050
:1006FC00FEE790B488B000AFF860B9607A60FB6830
:10070C001A46BB681B0E13441C462268BB687B61EF
:10071C007B6993FAA3F33B613B69B3FA83F3DBB2D6
:10072C009B000F2101FA03F3DB431A40BB68FB610A
:10073C00FB6993FAA3F3BB61BB69B3FA83F3DBB236
:10074C009B00796801FA03F31343236000BF203741
:10075C00BD4690BC704790B488B000AFF860B960EB
:10076C007A60FB681A46BB681B0E13441C46226851
:10077C00BB687B617B6993FAA3F33B613B69B3FA7A
:10078C0083F3DBB29B00032101FA03F3DB431A4032
:10079C00BB68FB61FB6993FAA3F3BB61BB69B3FA5A
:1007AC0083F3DBB29B00796801FA03F313432360F4
:1007BC0000BF2037BD4690BC704790B488B000AFE6
:1007CC00F860B9607A60FB681A46BB681B0E13446C
:1007DC001C462268BB687B617B6993FAA3F33B617F
:1007EC003B69B3FA83F3DBB29B00042101FA03F3F8
:1007FC00DB431A40BB68FB61FB6993FAA3F3BB6153
:10080C00BB69B3FA83F3DBB29B00796801FA03F39B
:10081C001343236000BF2037BD4690BC704780B4A3
:10082C0087B000AFF860B9607A60FB68DA68BB68C3
:10083C001B0ADB431A40BB681B0A7B617B6993FA7A
:10084C00A3F33B613B69B3FA83F3DBB219467B68D4
:10085C008B401A43FB68DA6000BF1C37BD4680BC76
:10086C00704780B588B000AF786039603B681B6812
:10087C001B021B0C7B617B693B613B6993FAA3F305
:10088C00FB60FB68B3FA83F3DBB2FB6144E001224B
:10089C00FB699A407B691340002B3AD0FB69072B0C
:1008AC0006D840F20112FB6902FA03F3BB6108E0BF
:1008BC00FB69083B4FF0011202FA03F343F080632B
:1008CC00BB613B685B68082B06D13B681B691A4609
:1008DC00B9697868FFF7A3FF3B685B681A46B9698A
:1008EC007868FFF706FF3B685B68012B03D03B6819
:1008FC005B68092B0DD13B689B681A46B96978680F
:10090C00FFF729FF3B68DB681A46B9697868FFF77F
:10091C0054FFFB690133FB617A69FB6922FA03F32B
:10092C00002BB4D1002318462037BD4680BD0000F3
:10093C0080B483B000AF786039607A683B68B2FBF2
:10094C00F3F3074A013B5360054B00229A60044BBA
:10095C0005221A6000BF0C37BD4680BC704700BF33
:10096C0010E000E080B582B000AF78604FF47A718F
:10097C007868FFF7DDFF00BF0837BD4680BD00007B
:10098C0080B483B000AF7860034A7B68136000BF0B
:10099C000C37BD4680BC70470000002070B50026A7
:1009AC000C4D0D4C641BA410A64209D100F01AF892
:1009BC0000260A4D0A4C641BA410A64205D170BD3A
:1009CC0055F8043B98470136EEE755F8043B984739
:1009DC000136F2E7080A0008080A0008080A0008AD
:1009EC000C0A0008F8B500BFF8BC08BC9E4670475E
:0C09FC00F8B500BFF8BC08BC9E46704770
:040A080031010008B0
:040A0C000D010008D0
:040A10000024F400CA
:04000005080006B534
:00000001FF
